{
  "contractName": "Decentraskill",
  "abi": [
    {
      "inputs": [],
      "stateMutability": "nonpayable",
      "type": "constructor"
    },
    {
      "inputs": [
        {
          "internalType": "address",
          "name": "",
          "type": "address"
        }
      ],
      "name": "address_to_id",
      "outputs": [
        {
          "internalType": "uint256",
          "name": "",
          "type": "uint256"
        }
      ],
      "stateMutability": "view",
      "type": "function",
      "constant": true
    },
    {
      "inputs": [
        {
          "internalType": "uint256",
          "name": "",
          "type": "uint256"
        }
      ],
      "name": "certifications",
      "outputs": [
        {
          "internalType": "string",
          "name": "url",
          "type": "string"
        },
        {
          "internalType": "string",
          "name": "issue_date",
          "type": "string"
        },
        {
          "internalType": "string",
          "name": "valid_till",
          "type": "string"
        },
        {
          "internalType": "string",
          "name": "name",
          "type": "string"
        },
        {
          "internalType": "uint256",
          "name": "id",
          "type": "uint256"
        },
        {
          "internalType": "string",
          "name": "issuer",
          "type": "string"
        }
      ],
      "stateMutability": "view",
      "type": "function",
      "constant": true
    },
    {
      "inputs": [
        {
          "internalType": "uint256",
          "name": "",
          "type": "uint256"
        }
      ],
      "name": "companies",
      "outputs": [
        {
          "internalType": "uint256",
          "name": "id",
          "type": "uint256"
        },
        {
          "internalType": "string",
          "name": "name",
          "type": "string"
        },
        {
          "internalType": "address",
          "name": "wallet_address",
          "type": "address"
        }
      ],
      "stateMutability": "view",
      "type": "function",
      "constant": true
    },
    {
      "inputs": [
        {
          "internalType": "string",
          "name": "",
          "type": "string"
        }
      ],
      "name": "email_to_address",
      "outputs": [
        {
          "internalType": "address",
          "name": "",
          "type": "address"
        }
      ],
      "stateMutability": "view",
      "type": "function",
      "constant": true
    },
    {
      "inputs": [
        {
          "internalType": "uint256",
          "name": "",
          "type": "uint256"
        }
      ],
      "name": "employees",
      "outputs": [
        {
          "internalType": "uint256",
          "name": "id",
          "type": "uint256"
        },
        {
          "internalType": "uint256",
          "name": "company_id",
          "type": "uint256"
        },
        {
          "internalType": "string",
          "name": "name",
          "type": "string"
        },
        {
          "internalType": "address",
          "name": "wallet_address",
          "type": "address"
        },
        {
          "internalType": "bool",
          "name": "is_employed",
          "type": "bool"
        },
        {
          "internalType": "bool",
          "name": "is_manager",
          "type": "bool"
        },
        {
          "internalType": "uint256",
          "name": "num_skill",
          "type": "uint256"
        }
      ],
      "stateMutability": "view",
      "type": "function",
      "constant": true
    },
    {
      "inputs": [
        {
          "internalType": "uint256",
          "name": "",
          "type": "uint256"
        }
      ],
      "name": "endorsments",
      "outputs": [
        {
          "internalType": "uint256",
          "name": "endorser_id",
          "type": "uint256"
        },
        {
          "internalType": "string",
          "name": "date",
          "type": "string"
        },
        {
          "internalType": "string",
          "name": "comment",
          "type": "string"
        }
      ],
      "stateMutability": "view",
      "type": "function",
      "constant": true
    },
    {
      "inputs": [
        {
          "internalType": "uint256",
          "name": "",
          "type": "uint256"
        }
      ],
      "name": "experiences",
      "outputs": [
        {
          "internalType": "string",
          "name": "starting_date",
          "type": "string"
        },
        {
          "internalType": "string",
          "name": "ending_date",
          "type": "string"
        },
        {
          "internalType": "string",
          "name": "user_name",
          "type": "string"
        },
        {
          "internalType": "string",
          "name": "role",
          "type": "string"
        },
        {
          "internalType": "bool",
          "name": "currently_working",
          "type": "bool"
        },
        {
          "internalType": "uint256",
          "name": "company_id",
          "type": "uint256"
        },
        {
          "internalType": "bool",
          "name": "is_approved",
          "type": "bool"
        }
      ],
      "stateMutability": "view",
      "type": "function",
      "constant": true
    },
    {
      "inputs": [
        {
          "internalType": "address",
          "name": "",
          "type": "address"
        }
      ],
      "name": "is_company",
      "outputs": [
        {
          "internalType": "bool",
          "name": "",
          "type": "bool"
        }
      ],
      "stateMutability": "view",
      "type": "function",
      "constant": true
    },
    {
      "inputs": [
        {
          "internalType": "uint256",
          "name": "",
          "type": "uint256"
        }
      ],
      "name": "skills",
      "outputs": [
        {
          "internalType": "uint256",
          "name": "id",
          "type": "uint256"
        },
        {
          "internalType": "string",
          "name": "name",
          "type": "string"
        },
        {
          "internalType": "bool",
          "name": "verified",
          "type": "bool"
        }
      ],
      "stateMutability": "view",
      "type": "function",
      "constant": true
    },
    {
      "inputs": [
        {
          "internalType": "string",
          "name": "email",
          "type": "string"
        },
        {
          "internalType": "string",
          "name": "name",
          "type": "string"
        },
        {
          "internalType": "string",
          "name": "acc_type",
          "type": "string"
        }
      ],
      "name": "sign_up",
      "outputs": [],
      "stateMutability": "nonpayable",
      "type": "function"
    },
    {
      "inputs": [
        {
          "internalType": "uint256",
          "name": "employee_id",
          "type": "uint256"
        }
      ],
      "name": "approve_manager",
      "outputs": [],
      "stateMutability": "nonpayable",
      "type": "function"
    },
    {
      "inputs": [
        {
          "internalType": "string",
          "name": "email",
          "type": "string"
        }
      ],
      "name": "login",
      "outputs": [
        {
          "internalType": "string",
          "name": "",
          "type": "string"
        }
      ],
      "stateMutability": "view",
      "type": "function",
      "constant": true
    },
    {
      "inputs": [
        {
          "internalType": "uint256",
          "name": "user_id",
          "type": "uint256"
        },
        {
          "internalType": "string",
          "name": "url",
          "type": "string"
        },
        {
          "internalType": "string",
          "name": "issue_date",
          "type": "string"
        },
        {
          "internalType": "string",
          "name": "valid_till",
          "type": "string"
        },
        {
          "internalType": "string",
          "name": "name",
          "type": "string"
        },
        {
          "internalType": "string",
          "name": "issuer",
          "type": "string"
        },
        {
          "internalType": "uint256",
          "name": "linked_skill_id",
          "type": "uint256"
        }
      ],
      "name": "add_certification",
      "outputs": [],
      "stateMutability": "nonpayable",
      "type": "function"
    },
    {
      "inputs": [
        {
          "internalType": "uint256",
          "name": "userid",
          "type": "uint256"
        },
        {
          "internalType": "string",
          "name": "skill_name",
          "type": "string"
        }
      ],
      "name": "add_skill",
      "outputs": [],
      "stateMutability": "nonpayable",
      "type": "function"
    },
    {
      "inputs": [
        {
          "internalType": "uint256",
          "name": "user_id",
          "type": "uint256"
        },
        {
          "internalType": "uint256",
          "name": "skill_id",
          "type": "uint256"
        },
        {
          "internalType": "string",
          "name": "endorsing_date",
          "type": "string"
        },
        {
          "internalType": "string",
          "name": "comment",
          "type": "string"
        }
      ],
      "name": "endorse_skill",
      "outputs": [],
      "stateMutability": "nonpayable",
      "type": "function"
    },
    {
      "inputs": [
        {
          "internalType": "uint256",
          "name": "user_id",
          "type": "uint256"
        },
        {
          "internalType": "string",
          "name": "starting_date",
          "type": "string"
        },
        {
          "internalType": "string",
          "name": "ending_date",
          "type": "string"
        },
        {
          "internalType": "string",
          "name": "role",
          "type": "string"
        },
        {
          "internalType": "uint256",
          "name": "company_id",
          "type": "uint256"
        }
      ],
      "name": "add_experience",
      "outputs": [],
      "stateMutability": "nonpayable",
      "type": "function"
    },
    {
      "inputs": [
        {
          "internalType": "uint256",
          "name": "exp_id",
          "type": "uint256"
        },
        {
          "internalType": "uint256",
          "name": "company_id",
          "type": "uint256"
        }
      ],
      "name": "approve_experience",
      "outputs": [],
      "stateMutability": "nonpayable",
      "type": "function"
    },
    {
      "inputs": [
        {
          "internalType": "string",
          "name": "email",
          "type": "string"
        },
        {
          "internalType": "address",
          "name": "new_address",
          "type": "address"
        }
      ],
      "name": "update_wallet_address",
      "outputs": [],
      "stateMutability": "nonpayable",
      "type": "function"
    },
    {
      "inputs": [
        {
          "internalType": "uint256",
          "name": "id",
          "type": "uint256"
        }
      ],
      "name": "skills_of_user",
      "outputs": [
        {
          "internalType": "uint256[]",
          "name": "",
          "type": "uint256[]"
        }
      ],
      "stateMutability": "view",
      "type": "function",
      "constant": true
    },
    {
      "inputs": [
        {
          "internalType": "uint256",
          "name": "id",
          "type": "uint256"
        }
      ],
      "name": "exp_of_user",
      "outputs": [
        {
          "internalType": "uint256[]",
          "name": "",
          "type": "uint256[]"
        }
      ],
      "stateMutability": "view",
      "type": "function",
      "constant": true
    },
    {
      "inputs": [
        {
          "internalType": "uint256",
          "name": "id",
          "type": "uint256"
        }
      ],
      "name": "curr_emp_of_company",
      "outputs": [
        {
          "internalType": "uint256[]",
          "name": "",
          "type": "uint256[]"
        }
      ],
      "stateMutability": "view",
      "type": "function",
      "constant": true
    },
    {
      "inputs": [
        {
          "internalType": "uint256",
          "name": "id",
          "type": "uint256"
        }
      ],
      "name": "prev_emp_of_company",
      "outputs": [
        {
          "internalType": "uint256[]",
          "name": "",
          "type": "uint256[]"
        }
      ],
      "stateMutability": "view",
      "type": "function",
      "constant": true
    },
    {
      "inputs": [
        {
          "internalType": "uint256",
          "name": "id",
          "type": "uint256"
        }
      ],
      "name": "requested_emp_of_company",
      "outputs": [
        {
          "internalType": "uint256[]",
          "name": "",
          "type": "uint256[]"
        }
      ],
      "stateMutability": "view",
      "type": "function",
      "constant": true
    },
    {
      "inputs": [
        {
          "internalType": "uint256",
          "name": "id",
          "type": "uint256"
        }
      ],
      "name": "cert_of_skill",
      "outputs": [
        {
          "internalType": "uint256[]",
          "name": "",
          "type": "uint256[]"
        }
      ],
      "stateMutability": "view",
      "type": "function",
      "constant": true
    },
    {
      "inputs": [
        {
          "internalType": "uint256",
          "name": "id",
          "type": "uint256"
        }
      ],
      "name": "endrs_of_skill",
      "outputs": [
        {
          "internalType": "uint256[]",
          "name": "",
          "type": "uint256[]"
        }
      ],
      "stateMutability": "view",
      "type": "function",
      "constant": true
    }
  ],
  "bytecode": "0x60806040523480156200001157600080fd5b5060006001808160018154018082558091505003906000526020600020906007020190506040518060400160405280600581526020017f64756d6d7900000000000000000000000000000000000000000000000000000081525081600201908051906020019062000084929190620001f1565b50338160030160006101000a81548173ffffffffffffffffffffffffffffffffffffffff021916908373ffffffffffffffffffffffffffffffffffffffff16021790555060008160000181905550600067ffffffffffffffff81111562000114577f4e487b7100000000000000000000000000000000000000000000000000000000600052604160045260246000fd5b604051908082528060200260200182016040528015620001435781602001602082028036833780820191505090505b508160050190805190602001906200015d92919062000282565b50600067ffffffffffffffff811115620001a0577f4e487b7100000000000000000000000000000000000000000000000000000000600052604160045260246000fd5b604051908082528060200260200182016040528015620001cf5781602001602082028036833780820191505090505b50816006019080519060200190620001e992919062000282565b505062000358565b828054620001ff90620002f3565b90600052602060002090601f0160209004810192826200022357600085556200026f565b82601f106200023e57805160ff19168380011785556200026f565b828001600101855582156200026f579182015b828111156200026e57825182559160200191906001019062000251565b5b5090506200027e9190620002d4565b5090565b828054828255906000526020600020908101928215620002c1579160200282015b82811115620002c0578251825591602001919060010190620002a3565b5b509050620002d09190620002d4565b5090565b5b80821115620002ef576000816000905550600101620002d5565b5090565b600060028204905060018216806200030c57607f821691505b6020821081141562000323576200032262000329565b5b50919050565b7f4e487b7100000000000000000000000000000000000000000000000000000000600052602260045260246000fd5b61432a80620003686000396000f3fe608060405234801561001057600080fd5b50600436106101735760003560e01c806350d15fbe116100de578063b1e116c311610097578063dd7a753811610071578063dd7a753814610507578063edf85a8614610537578063f7a03f3b14610553578063f86b20cb1461058357610173565b8063b1e116c31461046f578063ce77c9c9146104a1578063cf3e7c7c146104d157610173565b806350d15fbe146103755780635a2ec07c146103a75780637a52f30e146103c3578063852e65de146103f3578063884ffe32146104235780639e70be411461043f57610173565b80632cc8e274116101305780632cc8e2741461025e57806336d77eaa1461028e5780633a7d280c146102aa5780633c0359a4146102da5780634739326b1461030f5780634845a2951461034557610173565b8063067709dd146101785780630c1bc59114610194578063110ce79c146101b05780631575cdea146101e057806317ae5f81146101fc5780632813d19d1461022c575b600080fd5b610192600480360381019061018d91906135e5565b61059f565b005b6101ae60048036038101906101a99190613519565b610717565b005b6101ca60048036038101906101c59190613498565b61097f565b6040516101d79190613a65565b60405180910390f35b6101fa60048036038101906101f591906133b3565b610a22565b005b61021660048036038101906102119190613498565b610ff7565b6040516102239190613a65565b60405180910390f35b61024660048036038101906102419190613498565b61109a565b60405161025593929190613cce565b60405180910390f35b61027860048036038101906102739190613498565b61117c565b6040516102859190613a65565b60405180910390f35b6102a860048036038101906102a39190613498565b61121f565b005b6102c460048036038101906102bf9190613457565b611476565b6040516102d19190613aa2565b60405180910390f35b6102f460048036038101906102ef9190613498565b6115ee565b60405161030696959493929190613b4f565b60405180910390f35b61032960048036038101906103249190613498565b6118e2565b60405161033c9796959493929190613d8f565b60405180910390f35b61035f600480360381019061035a9190613457565b6119f6565b60405161036c9190613a4a565b60405180910390f35b61038f600480360381019061038a9190613498565b611a3f565b60405161039e93929190613d0c565b60405180910390f35b6103c160048036038101906103bc91906134c1565b611b0e565b005b6103dd60048036038101906103d89190613332565b611d63565b6040516103ea9190613cb3565b60405180910390f35b61040d60048036038101906104089190613498565b611d7b565b60405161041a9190613a65565b60405180910390f35b61043d6004803603810190610438919061335b565b611e1e565b005b61045960048036038101906104549190613498565b611ffe565b6040516104669190613a65565b60405180910390f35b61048960048036038101906104849190613498565b6120a1565b60405161049893929190613d4a565b60405180910390f35b6104bb60048036038101906104b69190613498565b6121eb565b6040516104c89190613a65565b60405180910390f35b6104eb60048036038101906104e69190613498565b61228e565b6040516104fe9796959493929190613ac4565b60405180910390f35b610521600480360381019061051c9190613332565b61251a565b60405161052e9190613a87565b60405180910390f35b610551600480360381019061054c919061370d565b61253a565b005b61056d60048036038101906105689190613498565b612c74565b60405161057a9190613a65565b60405180910390f35b61059d60048036038101906105989190613749565b612d17565b005b8a600760003373ffffffffffffffffffffffffffffffffffffffff1673ffffffffffffffffffffffffffffffffffffffff1681526020019081526020016000205481146105eb57600080fd5b6000600260018160018154018082558091505003906000526020600020906006020190508b816000019080519060200190610627929190613053565b508a8a82600101919061063b9291906130d9565b50888882600201919061064f9291906130d9565b5086868260030191906106639291906130d9565b5060016002805490506106769190613ebb565b816004018190555084848260050191906106919291906130d9565b50600483815481106106cc577f4e487b7100000000000000000000000000000000000000000000000000000000600052603260045260246000fd5b90600052602060002090600502016003018160040154908060018154018082558091505060019003906000526020600020016000909190919091505550505050505050505050505050565b87600760003373ffffffffffffffffffffffffffffffffffffffff1673ffffffffffffffffffffffffffffffffffffffff16815260200190815260200160002054811461076357600080fd5b60006005600181600181540180825580915050039060005260206000209060070201905082816005018190555060008160040160006101000a81548160ff02191690831515021790555060008160060160006101000a81548160ff02191690831515021790555088888260000191906107dd9291906130d9565b5086868260010191906107f19291906130d9565b5084848260030191906108059291906130d9565b5060018a81548110610840577f4e487b7100000000000000000000000000000000000000000000000000000000600052603260045260246000fd5b90600052602060002090600702016002018160020190805461086190613f79565b61086c92919061315f565b5060018a815481106108a7577f4e487b7100000000000000000000000000000000000000000000000000000000600052603260045260246000fd5b906000526020600020906007020160060160016005805490506108ca9190613ebb565b90806001815401808255809150506001900390600052602060002001600090919091909150556000838154811061092a577f4e487b7100000000000000000000000000000000000000000000000000000000600052603260045260246000fd5b9060005260206000209060060201600501600160058054905061094d9190613ebb565b908060018154018082558091505060019003906000526020600020016000909190919091505550505050505050505050565b6060600482815481106109bb577f4e487b7100000000000000000000000000000000000000000000000000000000600052603260045260246000fd5b9060005260206000209060050201600401805480602002602001604051908101604052809291908181526020018280548015610a1657602002820191906000526020600020905b815481526020019060010190808311610a02575b50505050509050919050565b600073ffffffffffffffffffffffffffffffffffffffff1660068787604051610a4c929190613a1a565b908152602001604051809103902060009054906101000a900473ffffffffffffffffffffffffffffffffffffffff1673ffffffffffffffffffffffffffffffffffffffff1614610ad1576040517f08c379a0000000000000000000000000000000000000000000000000000000008152600401610ac890613c73565b60405180910390fd5b3360068787604051610ae4929190613a1a565b908152602001604051809103902060006101000a81548173ffffffffffffffffffffffffffffffffffffffff021916908373ffffffffffffffffffffffffffffffffffffffff160217905550610bb382828080601f016020809104026020016040519081016040528093929190818152602001838380828437600081840152601f19601f820116905080830192505050505050506040518060400160405280600481526020017f7573657200000000000000000000000000000000000000000000000000000000815250613017565b15610da95760006001808160018154018082558091505003906000526020600020906007020190508484826002019190610bee9291906130d9565b5060018080549050610c009190613ebb565b8160000181905550338160030160006101000a81548173ffffffffffffffffffffffffffffffffffffffff021916908373ffffffffffffffffffffffffffffffffffffffff1602179055508060000154600760003373ffffffffffffffffffffffffffffffffffffffff1673ffffffffffffffffffffffffffffffffffffffff16815260200190815260200160002081905550600067ffffffffffffffff811115610cd4577f4e487b7100000000000000000000000000000000000000000000000000000000600052604160045260246000fd5b604051908082528060200260200182016040528015610d025781602001602082028036833780820191505090505b50816005019080519060200190610d1a9291906131ec565b50600067ffffffffffffffff811115610d5c577f4e487b7100000000000000000000000000000000000000000000000000000000600052604160045260246000fd5b604051908082528060200260200182016040528015610d8a5781602001602082028036833780820191505090505b50816006019080519060200190610da29291906131ec565b5050610fef565b60008060018160018154018082558091505003906000526020600020906006020190508484826001019190610ddf9291906130d9565b506001600080549050610df29190613ebb565b8160000181905550338160020160006101000a81548173ffffffffffffffffffffffffffffffffffffffff021916908373ffffffffffffffffffffffffffffffffffffffff160217905550600067ffffffffffffffff811115610e7e577f4e487b7100000000000000000000000000000000000000000000000000000000600052604160045260246000fd5b604051908082528060200260200182016040528015610eac5781602001602082028036833780820191505090505b50816003019080519060200190610ec49291906131ec565b50600067ffffffffffffffff811115610f06577f4e487b7100000000000000000000000000000000000000000000000000000000600052604160045260246000fd5b604051908082528060200260200182016040528015610f345781602001602082028036833780820191505090505b50816004019080519060200190610f4c9291906131ec565b508060000154600760003373ffffffffffffffffffffffffffffffffffffffff1673ffffffffffffffffffffffffffffffffffffffff168152602001908152602001600020819055506001600860003373ffffffffffffffffffffffffffffffffffffffff1673ffffffffffffffffffffffffffffffffffffffff16815260200190815260200160002060006101000a81548160ff021916908315150217905550505b505050505050565b606060008281548110611033577f4e487b7100000000000000000000000000000000000000000000000000000000600052603260045260246000fd5b906000526020600020906006020160050180548060200260200160405190810160405280929190818152602001828054801561108e57602002820191906000526020600020905b81548152602001906001019080831161107a575b50505050509050919050565b600081815481106110aa57600080fd5b90600052602060002090600602016000915090508060000154908060010180546110d390613f79565b80601f01602080910402602001604051908101604052809291908181526020018280546110ff90613f79565b801561114c5780601f106111215761010080835404028352916020019161114c565b820191906000526020600020905b81548152906001019060200180831161112f57829003601f168201915b5050505050908060020160009054906101000a900473ffffffffffffffffffffffffffffffffffffffff16905083565b6060600082815481106111b8577f4e487b7100000000000000000000000000000000000000000000000000000000600052603260045260246000fd5b906000526020600020906006020160040180548060200260200160405190810160405280929190818152602001828054801561121357602002820191906000526020600020905b8154815260200190600101908083116111ff575b50505050509050919050565b600860003373ffffffffffffffffffffffffffffffffffffffff1673ffffffffffffffffffffffffffffffffffffffff16815260200190815260200160002060009054906101000a900460ff166112ab576040517f08c379a00000000000000000000000000000000000000000000000000000000081526004016112a290613bf3565b60405180910390fd5b600760003373ffffffffffffffffffffffffffffffffffffffff1673ffffffffffffffffffffffffffffffffffffffff1681526020019081526020016000205460018281548110611325577f4e487b7100000000000000000000000000000000000000000000000000000000600052603260045260246000fd5b90600052602060002090600702016001015414611377576040517f08c379a000000000000000000000000000000000000000000000000000000000815260040161136e90613c33565b60405180910390fd5b600181815481106113b1577f4e487b7100000000000000000000000000000000000000000000000000000000600052603260045260246000fd5b906000526020600020906007020160030160159054906101000a900460ff1615611410576040517f08c379a000000000000000000000000000000000000000000000000000000000815260040161140790613c93565b60405180910390fd5b600180828154811061144b577f4e487b7100000000000000000000000000000000000000000000000000000000600052603260045260246000fd5b906000526020600020906007020160030160156101000a81548160ff02191690831515021790555050565b60606006826040516114889190613a33565b908152602001604051809103902060009054906101000a900473ffffffffffffffffffffffffffffffffffffffff1673ffffffffffffffffffffffffffffffffffffffff163373ffffffffffffffffffffffffffffffffffffffff1614611524576040517f08c379a000000000000000000000000000000000000000000000000000000000815260040161151b90613c13565b60405180910390fd5b600860003373ffffffffffffffffffffffffffffffffffffffff1673ffffffffffffffffffffffffffffffffffffffff16815260200190815260200160002060009054906101000a900460ff166115b0576040518060400160405280600481526020017f75736572000000000000000000000000000000000000000000000000000000008152506115e7565b6040518060400160405280600781526020017f636f6d70616e79000000000000000000000000000000000000000000000000008152505b9050919050565b600281815481106115fe57600080fd5b906000526020600020906006020160009150905080600001805461162190613f79565b80601f016020809104026020016040519081016040528092919081815260200182805461164d90613f79565b801561169a5780601f1061166f5761010080835404028352916020019161169a565b820191906000526020600020905b81548152906001019060200180831161167d57829003601f168201915b5050505050908060010180546116af90613f79565b80601f01602080910402602001604051908101604052809291908181526020018280546116db90613f79565b80156117285780601f106116fd57610100808354040283529160200191611728565b820191906000526020600020905b81548152906001019060200180831161170b57829003601f168201915b50505050509080600201805461173d90613f79565b80601f016020809104026020016040519081016040528092919081815260200182805461176990613f79565b80156117b65780601f1061178b576101008083540402835291602001916117b6565b820191906000526020600020905b81548152906001019060200180831161179957829003601f168201915b5050505050908060030180546117cb90613f79565b80601f01602080910402602001604051908101604052809291908181526020018280546117f790613f79565b80156118445780601f1061181957610100808354040283529160200191611844565b820191906000526020600020905b81548152906001019060200180831161182757829003601f168201915b50505050509080600401549080600501805461185f90613f79565b80601f016020809104026020016040519081016040528092919081815260200182805461188b90613f79565b80156118d85780601f106118ad576101008083540402835291602001916118d8565b820191906000526020600020905b8154815290600101906020018083116118bb57829003601f168201915b5050505050905086565b600181815481106118f257600080fd5b906000526020600020906007020160009150905080600001549080600101549080600201805461192190613f79565b80601f016020809104026020016040519081016040528092919081815260200182805461194d90613f79565b801561199a5780601f1061196f5761010080835404028352916020019161199a565b820191906000526020600020905b81548152906001019060200180831161197d57829003601f168201915b5050505050908060030160009054906101000a900473ffffffffffffffffffffffffffffffffffffffff16908060030160149054906101000a900460ff16908060030160159054906101000a900460ff16908060040154905087565b6006818051602081018201805184825260208301602085012081835280955050505050506000915054906101000a900473ffffffffffffffffffffffffffffffffffffffff1681565b60048181548110611a4f57600080fd5b9060005260206000209060050201600091509050806000015490806001018054611a7890613f79565b80601f0160208091040260200160405190810160405280929190818152602001828054611aa490613f79565b8015611af15780601f10611ac657610100808354040283529160200191611af1565b820191906000526020600020905b815481529060010190602001808311611ad457829003601f168201915b5050505050908060020160009054906101000a900460ff16905083565b82600760003373ffffffffffffffffffffffffffffffffffffffff1673ffffffffffffffffffffffffffffffffffffffff168152602001908152602001600020548114611b5a57600080fd5b60006004600181600181540180825580915050039060005260206000209060050201905060018581548110611bb8577f4e487b7100000000000000000000000000000000000000000000000000000000600052603260045260246000fd5b90600052602060002090600702016005016001600480549050611bdb9190613ebb565b90806001815401808255809150506001900390600052602060002001600090919091909150556001600480549050611c139190613ebb565b81600001819055508383826001019190611c2e9291906130d9565b5060008160020160006101000a81548160ff021916908315150217905550600067ffffffffffffffff811115611c8d577f4e487b7100000000000000000000000000000000000000000000000000000000600052604160045260246000fd5b604051908082528060200260200182016040528015611cbb5781602001602082028036833780820191505090505b50816003019080519060200190611cd39291906131ec565b50600067ffffffffffffffff811115611d15577f4e487b7100000000000000000000000000000000000000000000000000000000600052604160045260246000fd5b604051908082528060200260200182016040528015611d435781602001602082028036833780820191505090505b50816004019080519060200190611d5b9291906131ec565b505050505050565b60076020528060005260406000206000915090505481565b606060008281548110611db7577f4e487b7100000000000000000000000000000000000000000000000000000000600052603260045260246000fd5b9060005260206000209060060201600301805480602002602001604051908101604052809291908181526020018280548015611e1257602002820191906000526020600020905b815481526020019060010190808311611dfe575b50505050509050919050565b3373ffffffffffffffffffffffffffffffffffffffff1660068484604051611e47929190613a1a565b908152602001604051809103902060009054906101000a900473ffffffffffffffffffffffffffffffffffffffff1673ffffffffffffffffffffffffffffffffffffffff1614611ecc576040517f08c379a0000000000000000000000000000000000000000000000000000000008152600401611ec390613c53565b60405180910390fd5b8060068484604051611edf929190613a1a565b908152602001604051809103902060006101000a81548173ffffffffffffffffffffffffffffffffffffffff021916908373ffffffffffffffffffffffffffffffffffffffff1602179055506000600760003373ffffffffffffffffffffffffffffffffffffffff1673ffffffffffffffffffffffffffffffffffffffff1681526020019081526020016000205490506000600760003373ffffffffffffffffffffffffffffffffffffffff1673ffffffffffffffffffffffffffffffffffffffff1681526020019081526020016000208190555080600760008473ffffffffffffffffffffffffffffffffffffffff1673ffffffffffffffffffffffffffffffffffffffff1681526020019081526020016000208190555050505050565b60606001828154811061203a577f4e487b7100000000000000000000000000000000000000000000000000000000600052603260045260246000fd5b906000526020600020906007020160050180548060200260200160405190810160405280929190818152602001828054801561209557602002820191906000526020600020905b815481526020019060010190808311612081575b50505050509050919050565b600381815481106120b157600080fd5b90600052602060002090600302016000915090508060000154908060010180546120da90613f79565b80601f016020809104026020016040519081016040528092919081815260200182805461210690613f79565b80156121535780601f1061212857610100808354040283529160200191612153565b820191906000526020600020905b81548152906001019060200180831161213657829003601f168201915b50505050509080600201805461216890613f79565b80601f016020809104026020016040519081016040528092919081815260200182805461219490613f79565b80156121e15780601f106121b6576101008083540402835291602001916121e1565b820191906000526020600020905b8154815290600101906020018083116121c457829003601f168201915b5050505050905083565b606060018281548110612227577f4e487b7100000000000000000000000000000000000000000000000000000000600052603260045260246000fd5b906000526020600020906007020160060180548060200260200160405190810160405280929190818152602001828054801561228257602002820191906000526020600020905b81548152602001906001019080831161226e575b50505050509050919050565b6005818154811061229e57600080fd5b90600052602060002090600702016000915090508060000180546122c190613f79565b80601f01602080910402602001604051908101604052809291908181526020018280546122ed90613f79565b801561233a5780601f1061230f5761010080835404028352916020019161233a565b820191906000526020600020905b81548152906001019060200180831161231d57829003601f168201915b50505050509080600101805461234f90613f79565b80601f016020809104026020016040519081016040528092919081815260200182805461237b90613f79565b80156123c85780601f1061239d576101008083540402835291602001916123c8565b820191906000526020600020905b8154815290600101906020018083116123ab57829003601f168201915b5050505050908060020180546123dd90613f79565b80601f016020809104026020016040519081016040528092919081815260200182805461240990613f79565b80156124565780601f1061242b57610100808354040283529160200191612456565b820191906000526020600020905b81548152906001019060200180831161243957829003601f168201915b50505050509080600301805461246b90613f79565b80601f016020809104026020016040519081016040528092919081815260200182805461249790613f79565b80156124e45780601f106124b9576101008083540402835291602001916124e4565b820191906000526020600020905b8154815290600101906020018083116124c757829003601f168201915b5050505050908060040160009054906101000a900460ff16908060050154908060060160009054906101000a900460ff16905087565b60086020528060005260406000206000915054906101000a900460ff1681565b600860003373ffffffffffffffffffffffffffffffffffffffff1673ffffffffffffffffffffffffffffffffffffffff16815260200190815260200160002060009054906101000a900460ff1680156126675750600582815481106125c8577f4e487b7100000000000000000000000000000000000000000000000000000000600052603260045260246000fd5b9060005260206000209060070201600501546000600760003373ffffffffffffffffffffffffffffffffffffffff1673ffffffffffffffffffffffffffffffffffffffff1681526020019081526020016000205481548110612653577f4e487b7100000000000000000000000000000000000000000000000000000000600052603260045260246000fd5b906000526020600020906006020160000154145b806127e657506001600760003373ffffffffffffffffffffffffffffffffffffffff1673ffffffffffffffffffffffffffffffffffffffff16815260200190815260200160002054815481106126e6577f4e487b7100000000000000000000000000000000000000000000000000000000600052603260045260246000fd5b906000526020600020906007020160030160159054906101000a900460ff1680156127e5575060058281548110612746577f4e487b7100000000000000000000000000000000000000000000000000000000600052603260045260246000fd5b9060005260206000209060070201600501546001600760003373ffffffffffffffffffffffffffffffffffffffff1673ffffffffffffffffffffffffffffffffffffffff16815260200190815260200160002054815481106127d1577f4e487b7100000000000000000000000000000000000000000000000000000000600052603260045260246000fd5b906000526020600020906007020160010154145b5b612825576040517f08c379a000000000000000000000000000000000000000000000000000000000815260040161281c90613bd3565b60405180910390fd5b6000600160058481548110612863577f4e487b7100000000000000000000000000000000000000000000000000000000600052603260045260246000fd5b906000526020600020906007020160060160006101000a81548160ff021916908315150217905550600090505b600082815481106128ca577f4e487b7100000000000000000000000000000000000000000000000000000000600052603260045260246000fd5b906000526020600020906006020160050180549050811015612a24578260008381548110612921577f4e487b7100000000000000000000000000000000000000000000000000000000600052603260045260246000fd5b9060005260206000209060060201600501828154811061296a577f4e487b7100000000000000000000000000000000000000000000000000000000600052603260045260246000fd5b90600052602060002001541415612a1157600082815481106129b5577f4e487b7100000000000000000000000000000000000000000000000000000000600052603260045260246000fd5b906000526020600020906006020160050181815481106129fe577f4e487b7100000000000000000000000000000000000000000000000000000000600052603260045260246000fd5b9060005260206000200160009055612a24565b8080612a1c90613fdc565b915050612890565b60008091505b60008381548110612a64577f4e487b7100000000000000000000000000000000000000000000000000000000600052603260045260246000fd5b906000526020600020906006020160030180549050821015612b2d578360008481548110612abb577f4e487b7100000000000000000000000000000000000000000000000000000000600052603260045260246000fd5b90600052602060002090600602016003018381548110612b04577f4e487b7100000000000000000000000000000000000000000000000000000000600052603260045260246000fd5b90600052602060002001541415612b1a57600190505b8180612b2590613fdc565b925050612a2a565b80612ba55760008381548110612b6c577f4e487b7100000000000000000000000000000000000000000000000000000000600052603260045260246000fd5b90600052602060002090600602016003018490806001815401808255809150506001900390600052602060002001600090919091909150555b60008381548110612bdf577f4e487b7100000000000000000000000000000000000000000000000000000000600052603260045260246000fd5b906000526020600020906006020160030180549050821415612c6e5760008381548110612c35577f4e487b7100000000000000000000000000000000000000000000000000000000600052603260045260246000fd5b90600052602060002090600602016003018490806001815401808255809150506001900390600052602060002001600090919091909150555b50505050565b606060048281548110612cb0577f4e487b7100000000000000000000000000000000000000000000000000000000600052603260045260246000fd5b9060005260206000209060050201600301805480602002602001604051908101604052809291908181526020018280548015612d0b57602002820191906000526020600020905b815481526020019060010190808311612cf7575b50505050509050919050565b600060036001816001815401808255809150500390600052602060002090600302019050600760003373ffffffffffffffffffffffffffffffffffffffff1673ffffffffffffffffffffffffffffffffffffffff1681526020019081526020016000205481600001819055508282826002019190612d969291906130d9565b508484826001019190612daa9291906130d9565b5060048681548110612de5577f4e487b7100000000000000000000000000000000000000000000000000000000600052603260045260246000fd5b90600052602060002090600502016004016001600380549050612e089190613ebb565b90806001815401808255809150506001900390600052602060002001600090919091909150556001600760003373ffffffffffffffffffffffffffffffffffffffff1673ffffffffffffffffffffffffffffffffffffffff1681526020019081526020016000205481548110612ea7577f4e487b7100000000000000000000000000000000000000000000000000000000600052603260045260246000fd5b906000526020600020906007020160030160159054906101000a900460ff161561300e5760018781548110612f05577f4e487b7100000000000000000000000000000000000000000000000000000000600052603260045260246000fd5b9060005260206000209060070201600101546001600760003373ffffffffffffffffffffffffffffffffffffffff1673ffffffffffffffffffffffffffffffffffffffff1681526020019081526020016000205481548110612f90577f4e487b7100000000000000000000000000000000000000000000000000000000600052603260045260246000fd5b906000526020600020906007020160010154141561300d57600160048781548110612fe4577f4e487b7100000000000000000000000000000000000000000000000000000000600052603260045260246000fd5b906000526020600020906005020160020160006101000a81548160ff0219169083151502179055505b5b50505050505050565b6000613023838361302b565b905092915050565b60008151835114801561304b575081805190602001208380519060200120145b905092915050565b82805461305f90613f79565b90600052602060002090601f01602090048101928261308157600085556130c8565b82601f1061309a57805160ff19168380011785556130c8565b828001600101855582156130c8579182015b828111156130c75782518255916020019190600101906130ac565b5b5090506130d59190613239565b5090565b8280546130e590613f79565b90600052602060002090601f016020900481019282613107576000855561314e565b82601f1061312057803560ff191683800117855561314e565b8280016001018555821561314e579182015b8281111561314d578235825591602001919060010190613132565b5b50905061315b9190613239565b5090565b82805461316b90613f79565b90600052602060002090601f01602090048101928261318d57600085556131db565b82601f1061319e57805485556131db565b828001600101855582156131db57600052602060002091601f016020900482015b828111156131da5782548255916001019190600101906131bf565b5b5090506131e89190613239565b5090565b828054828255906000526020600020908101928215613228579160200282015b8281111561322757825182559160200191906001019061320c565b5b5090506132359190613239565b5090565b5b8082111561325257600081600090555060010161323a565b5090565b600061326961326484613e2a565b613e05565b90508281526020810184848401111561328157600080fd5b61328c848285613f37565b509392505050565b6000813590506132a3816142c6565b92915050565b60008083601f8401126132bb57600080fd5b8235905067ffffffffffffffff8111156132d457600080fd5b6020830191508360018202830111156132ec57600080fd5b9250929050565b600082601f83011261330457600080fd5b8135613314848260208601613256565b91505092915050565b60008135905061332c816142dd565b92915050565b60006020828403121561334457600080fd5b600061335284828501613294565b91505092915050565b60008060006040848603121561337057600080fd5b600084013567ffffffffffffffff81111561338a57600080fd5b613396868287016132a9565b935093505060206133a986828701613294565b9150509250925092565b600080600080600080606087890312156133cc57600080fd5b600087013567ffffffffffffffff8111156133e657600080fd5b6133f289828a016132a9565b9650965050602087013567ffffffffffffffff81111561341157600080fd5b61341d89828a016132a9565b9450945050604087013567ffffffffffffffff81111561343c57600080fd5b61344889828a016132a9565b92509250509295509295509295565b60006020828403121561346957600080fd5b600082013567ffffffffffffffff81111561348357600080fd5b61348f848285016132f3565b91505092915050565b6000602082840312156134aa57600080fd5b60006134b88482850161331d565b91505092915050565b6000806000604084860312156134d657600080fd5b60006134e48682870161331d565b935050602084013567ffffffffffffffff81111561350157600080fd5b61350d868287016132a9565b92509250509250925092565b60008060008060008060008060a0898b03121561353557600080fd5b60006135438b828c0161331d565b985050602089013567ffffffffffffffff81111561356057600080fd5b61356c8b828c016132a9565b9750975050604089013567ffffffffffffffff81111561358b57600080fd5b6135978b828c016132a9565b9550955050606089013567ffffffffffffffff8111156135b657600080fd5b6135c28b828c016132a9565b935093505060806135d58b828c0161331d565b9150509295985092959890939650565b600080600080600080600080600080600060e08c8e03121561360657600080fd5b60006136148e828f0161331d565b9b505060208c013567ffffffffffffffff81111561363157600080fd5b61363d8e828f016132f3565b9a505060408c013567ffffffffffffffff81111561365a57600080fd5b6136668e828f016132a9565b995099505060608c013567ffffffffffffffff81111561368557600080fd5b6136918e828f016132a9565b975097505060808c013567ffffffffffffffff8111156136b057600080fd5b6136bc8e828f016132a9565b955095505060a08c013567ffffffffffffffff8111156136db57600080fd5b6136e78e828f016132a9565b935093505060c06136fa8e828f0161331d565b9150509295989b509295989b9093969950565b6000806040838503121561372057600080fd5b600061372e8582860161331d565b925050602061373f8582860161331d565b9150509250929050565b6000806000806000806080878903121561376257600080fd5b600061377089828a0161331d565b965050602061378189828a0161331d565b955050604087013567ffffffffffffffff81111561379e57600080fd5b6137aa89828a016132a9565b9450945050606087013567ffffffffffffffff8111156137c957600080fd5b6137d589828a016132a9565b92509250509295509295509295565b60006137f083836139fc565b60208301905092915050565b61380581613eef565b82525050565b600061381682613e6b565b6138208185613e8e565b935061382b83613e5b565b8060005b8381101561385c57815161384388826137e4565b975061384e83613e81565b92505060018101905061382f565b5085935050505092915050565b61387281613f01565b82525050565b60006138848385613eb0565b9350613891838584613f37565b82840190509392505050565b60006138a882613e76565b6138b28185613e9f565b93506138c2818560208601613f46565b6138cb816140b2565b840191505092915050565b60006138e182613e76565b6138eb8185613eb0565b93506138fb818560208601613f46565b80840191505092915050565b6000613914605283613e9f565b915061391f826140c3565b606082019050919050565b6000613937602383613e9f565b915061394282614138565b604082019050919050565b600061395a603383613e9f565b915061396582614187565b604082019050919050565b600061397d602383613e9f565b9150613988826141d6565b604082019050919050565b60006139a0603483613e9f565b91506139ab82614225565b604082019050919050565b60006139c3601b83613e9f565b91506139ce82614274565b602082019050919050565b60006139e6602083613e9f565b91506139f18261429d565b602082019050919050565b613a0581613f2d565b82525050565b613a1481613f2d565b82525050565b6000613a27828486613878565b91508190509392505050565b6000613a3f82846138d6565b915081905092915050565b6000602082019050613a5f60008301846137fc565b92915050565b60006020820190508181036000830152613a7f818461380b565b905092915050565b6000602082019050613a9c6000830184613869565b92915050565b60006020820190508181036000830152613abc818461389d565b905092915050565b600060e0820190508181036000830152613ade818a61389d565b90508181036020830152613af2818961389d565b90508181036040830152613b06818861389d565b90508181036060830152613b1a818761389d565b9050613b296080830186613869565b613b3660a0830185613a0b565b613b4360c0830184613869565b98975050505050505050565b600060c0820190508181036000830152613b69818961389d565b90508181036020830152613b7d818861389d565b90508181036040830152613b91818761389d565b90508181036060830152613ba5818661389d565b9050613bb46080830185613a0b565b81810360a0830152613bc6818461389d565b9050979650505050505050565b60006020820190508181036000830152613bec81613907565b9050919050565b60006020820190508181036000830152613c0c8161392a565b9050919050565b60006020820190508181036000830152613c2c8161394d565b9050919050565b60006020820190508181036000830152613c4c81613970565b9050919050565b60006020820190508181036000830152613c6c81613993565b9050919050565b60006020820190508181036000830152613c8c816139b6565b9050919050565b60006020820190508181036000830152613cac816139d9565b9050919050565b6000602082019050613cc86000830184613a0b565b92915050565b6000606082019050613ce36000830186613a0b565b8181036020830152613cf5818561389d565b9050613d0460408301846137fc565b949350505050565b6000606082019050613d216000830186613a0b565b8181036020830152613d33818561389d565b9050613d426040830184613869565b949350505050565b6000606082019050613d5f6000830186613a0b565b8181036020830152613d71818561389d565b90508181036040830152613d85818461389d565b9050949350505050565b600060e082019050613da4600083018a613a0b565b613db16020830189613a0b565b8181036040830152613dc3818861389d565b9050613dd260608301876137fc565b613ddf6080830186613869565b613dec60a0830185613869565b613df960c0830184613a0b565b98975050505050505050565b6000613e0f613e20565b9050613e1b8282613fab565b919050565b6000604051905090565b600067ffffffffffffffff821115613e4557613e44614083565b5b613e4e826140b2565b9050602081019050919050565b6000819050602082019050919050565b600081519050919050565b600081519050919050565b6000602082019050919050565b600082825260208201905092915050565b600082825260208201905092915050565b600081905092915050565b6000613ec682613f2d565b9150613ed183613f2d565b925082821015613ee457613ee3614025565b5b828203905092915050565b6000613efa82613f0d565b9050919050565b60008115159050919050565b600073ffffffffffffffffffffffffffffffffffffffff82169050919050565b6000819050919050565b82818337600083830152505050565b60005b83811015613f64578082015181840152602081019050613f49565b83811115613f73576000848401525b50505050565b60006002820490506001821680613f9157607f821691505b60208210811415613fa557613fa4614054565b5b50919050565b613fb4826140b2565b810181811067ffffffffffffffff82111715613fd357613fd2614083565b5b80604052505050565b6000613fe782613f2d565b91507fffffffffffffffffffffffffffffffffffffffffffffffffffffffffffffffff82141561401a57614019614025565b5b600182019050919050565b7f4e487b7100000000000000000000000000000000000000000000000000000000600052601160045260246000fd5b7f4e487b7100000000000000000000000000000000000000000000000000000000600052602260045260246000fd5b7f4e487b7100000000000000000000000000000000000000000000000000000000600052604160045260246000fd5b6000601f19601f8301169050919050565b7f6572726f723a20617070726f7665722073686f756c642062652074686520636f60008201527f6d70616e79206163636f756e74206f722061206d616e61676572206f6620746860208201527f6520726571756972656420636f6d70616e790000000000000000000000000000604082015250565b7f6572726f723a2073656e646572206e6f74206120636f6d70616e79206163636f60008201527f756e740000000000000000000000000000000000000000000000000000000000602082015250565b7f6572726f723a20696e636f72726563742077616c6c657420616464726573732060008201527f7573656420666f72207369676e696e6720696e00000000000000000000000000602082015250565b7f6572726f723a2075736572206e6f74206f66207468652073616d6520636f6d7060008201527f616e790000000000000000000000000000000000000000000000000000000000602082015250565b7f6572726f723a2066756e6374696f6e2063616c6c65642066726f6d20696e636f60008201527f72726563742077616c6c65742061646472657373000000000000000000000000602082015250565b7f6572726f723a207573657220616c726561647920657869737473210000000000600082015250565b7f6572726f723a207573657220697320616c72656164792061206d616e61676572600082015250565b6142cf81613eef565b81146142da57600080fd5b50565b6142e681613f2d565b81146142f157600080fd5b5056fea2646970667358221220685002b87434ff577779562a70decd47214135fbd3e5e68fff8da6c94bc6698664736f6c63430008010033",
  "immutableReferences": {},
  "source": "// SPDX-License-Identifier: MIT\npragma solidity ^0.8.1;\n\ncontract Decentraskill {\n    company[] public companies;\n    user[] public employees;\n    certificate[] public certifications;\n    endorsment[] public endorsments;\n    skill[] public skills;\n    experience[] public experiences;\n\n    mapping(string => address) public email_to_address;\n    mapping(address => uint256) public address_to_id;\n    mapping(address => bool) public is_company;\n\n    modifier verifiedUser(uint256 user_id) {\n        require(user_id == address_to_id[msg.sender]);\n        _;\n    }\n\n    struct company {\n        uint256 id;\n        string name;\n        address wallet_address;\n        uint256[] current_employees;\n        uint256[] previous_employees;\n        uint256[] requested_employees;\n    }\n\n    struct certificate {\n        string url;\n        string issue_date;\n        string valid_till;\n        string name;\n        uint256 id;\n        string issuer;\n    }\n\n    struct endorsment {\n        uint256 endorser_id;\n        string date;\n        string comment;\n    }\n\n    struct experience {\n        string starting_date;\n        string ending_date;\n        string user_name;\n        string role;\n        bool currently_working;\n        uint256 company_id;\n        bool is_approved;\n    }\n\n    struct skill {\n        uint256 id;\n        string name;\n        bool verified;\n        uint256[] skill_certifications;\n        uint256[] skill_endorsements;\n    }\n\n    struct user {\n        uint256 id;\n        uint256 company_id;\n        string name;\n        address wallet_address;\n        bool is_employed;\n        bool is_manager;\n        uint256 num_skill;\n        uint256[] user_skills;\n        uint256[] user_work_experience;\n    }\n\n    constructor() {\n        user storage dummy_user = employees.push();\n        dummy_user.name = \"dummy\";\n        dummy_user.wallet_address = msg.sender;\n        dummy_user.id = 0;\n        dummy_user.user_skills = new uint256[](0);\n        dummy_user.user_work_experience = new uint256[](0);\n    }\n\n    function memcmp(bytes memory a, bytes memory b)\n        internal\n        pure\n        returns (bool)\n    {\n        return (a.length == b.length) && (keccak256(a) == keccak256(b));\n    }\n\n    function strcmp(string memory a, string memory b)\n        internal\n        pure\n        returns (bool)\n    {\n        return memcmp(bytes(a), bytes(b));\n    }\n\n    function sign_up(\n        string calldata email,\n        string calldata name,\n        string calldata acc_type\n    ) public {\n        require(\n            email_to_address[email] == address(0),\n            \"error: user already exists!\"\n        );\n        email_to_address[email] = msg.sender;\n\n        if (strcmp(acc_type, \"user\")) {\n            user storage new_user = employees.push();\n            new_user.name = name;\n            new_user.id = employees.length - 1;\n            new_user.wallet_address = msg.sender;\n            address_to_id[msg.sender] = new_user.id;\n            new_user.user_skills = new uint256[](0);\n            new_user.user_work_experience = new uint256[](0);\n        } else {\n            company storage new_company = companies.push();\n            new_company.name = name;\n            new_company.id = companies.length - 1;\n            new_company.wallet_address = msg.sender;\n            new_company.current_employees = new uint256[](0);\n            new_company.previous_employees = new uint256[](0);\n            address_to_id[msg.sender] = new_company.id;\n            is_company[msg.sender] = true;\n        }\n    }\n\n    function approve_manager(uint256 employee_id) public {\n        require(is_company[msg.sender], \"error: sender not a company account\");\n        require(\n            employees[employee_id].company_id == address_to_id[msg.sender],\n            \"error: user not of the same company\"\n        );\n        require(\n            !(employees[employee_id].is_manager),\n            \"error: user is already a manager\"\n        );\n        employees[employee_id].is_manager = true;\n    }\n\n    function login(string memory email) public view returns (string memory) {\n        require(\n            msg.sender == email_to_address[email],\n            \"error: incorrect wallet address used for signing in\"\n        );\n        return (is_company[msg.sender]) ? \"company\" : \"user\";\n    }\n\n    function add_certification(\n        uint256 user_id,\n        string memory url,\n        string calldata issue_date,\n        string calldata valid_till,\n        string calldata name,\n        string calldata issuer,\n        uint256 linked_skill_id\n    ) public verifiedUser(user_id) {\n        certificate storage new_certificate = certifications.push();\n        new_certificate.url = url;\n        new_certificate.issue_date = issue_date;\n        new_certificate.valid_till = valid_till;\n        new_certificate.name = name;\n        new_certificate.id = certifications.length - 1;\n        new_certificate.issuer = issuer;\n        skills[linked_skill_id].skill_certifications.push(new_certificate.id);\n    }\n\n    function add_skill(uint256 userid, string calldata skill_name)\n        public\n        verifiedUser(userid)\n    {\n        skill storage new_skill = skills.push();\n        employees[userid].user_skills.push(skills.length - 1);\n        new_skill.id = skills.length - 1;\n        new_skill.name = skill_name;\n        new_skill.verified = false;\n        new_skill.skill_certifications = new uint256[](0);\n        new_skill.skill_endorsements = new uint256[](0);\n    }\n\n    function endorse_skill(\n        uint256 user_id,\n        uint256 skill_id,\n        string calldata endorsing_date,\n        string calldata comment\n    ) public {\n        endorsment storage new_endorsemnt = endorsments.push();\n        new_endorsemnt.endorser_id = address_to_id[msg.sender];\n        new_endorsemnt.comment = comment;\n        new_endorsemnt.date = endorsing_date;\n        skills[skill_id].skill_endorsements.push(endorsments.length - 1);\n        if (employees[address_to_id[msg.sender]].is_manager) {\n            if (\n                employees[address_to_id[msg.sender]].company_id ==\n                employees[user_id].company_id\n            ) {\n                skills[skill_id].verified = true;\n            }\n        }\n    }\n\n    function add_experience(\n        uint256 user_id,\n        string calldata starting_date,\n        string calldata ending_date,\n        string calldata role,\n        uint256 company_id\n    ) public verifiedUser(user_id) {\n        experience storage new_experience = experiences.push();\n        new_experience.company_id = company_id;\n        new_experience.currently_working = false;\n        new_experience.is_approved = false;\n        new_experience.starting_date = starting_date;\n        new_experience.ending_date = ending_date;\n        new_experience.role = role;\n        new_experience.user_name = employees[user_id].name;\n        employees[user_id].user_work_experience.push(experiences.length - 1);\n        companies[company_id].requested_employees.push(experiences.length - 1);\n    }\n\n    function approve_experience(uint256 exp_id, uint256 company_id) public {\n        require(\n            (is_company[msg.sender] &&\n                companies[address_to_id[msg.sender]].id ==\n                experiences[exp_id].company_id) ||\n                (employees[address_to_id[msg.sender]].is_manager &&\n                    employees[address_to_id[msg.sender]].company_id ==\n                    experiences[exp_id].company_id),\n            \"error: approver should be the company account or a manager of the required company\"\n        );\n        uint256 i;\n        experiences[exp_id].is_approved = true;\n        for (i = 0; i < companies[company_id].requested_employees.length; i++) {\n            if (companies[company_id].requested_employees[i] == exp_id) {\n                delete companies[company_id].requested_employees[i];\n                break;\n            }\n        }\n        bool isExpSet = false;\n        for (i = 0; i < companies[company_id].current_employees.length; i++) {\n            if (companies[company_id].current_employees[i] == exp_id)\n                isExpSet = true;\n        }\n        if (!isExpSet) companies[company_id].current_employees.push(exp_id);\n        // for (i = 0; i < companies[company_id].current_employees.length; i++) {\n        //     if (companies[company_id].current_employees[i] == 0) {\n        //         companies[company_id].current_employees[i] = exp_id;\n        //         break;\n        //     }\n        // }\n        if (i == companies[company_id].current_employees.length)\n            companies[company_id].current_employees.push(exp_id);\n    }\n\n    function update_wallet_address(string calldata email, address new_address)\n        public\n    {\n        require(\n            email_to_address[email] == msg.sender,\n            \"error: function called from incorrect wallet address\"\n        );\n        email_to_address[email] = new_address;\n        uint256 id = address_to_id[msg.sender];\n        address_to_id[msg.sender] = 0;\n        address_to_id[new_address] = id;\n    }\n\n    function skills_of_user(uint256 id) public view returns (uint256[] memory) {\n        return employees[id].user_skills;\n    }\n\n    function exp_of_user(uint256 id) public view returns (uint256[] memory) {\n        return employees[id].user_work_experience;\n    }\n\n    function curr_emp_of_company(uint256 id)\n        public\n        view\n        returns (uint256[] memory)\n    {\n        return companies[id].current_employees;\n    }\n\n    function prev_emp_of_company(uint256 id)\n        public\n        view\n        returns (uint256[] memory)\n    {\n        return companies[id].previous_employees;\n    }\n\n    function requested_emp_of_company(uint256 id)\n        public\n        view\n        returns (uint256[] memory)\n    {\n        return companies[id].requested_employees;\n    }\n\n    function cert_of_skill(uint256 id) public view returns (uint256[] memory) {\n        return skills[id].skill_certifications;\n    }\n\n    function endrs_of_skill(uint256 id) public view returns (uint256[] memory) {\n        return skills[id].skill_endorsements;\n    }\n}\n",
  "sourcePath": "C:\\Users\\Lihaaz Shaikh\\Desktop\\SkillCheck\\contracts\\SkillCheck.sol",
  "compiler": {
    "name": "solc",
    "version": "0.8.1+commit.df193b15.Emscripten.clang"
  },
  "schemaVersion": "3.4.3",
  "updatedAt": "2023-04-28T07:12:20.237Z",
  "networkType": "ethereum",
  "devdoc": {
    "kind": "dev",
    "methods": {},
    "version": 1
  },
  "userdoc": {
    "kind": "user",
    "methods": {},
    "version": 1
  }
}